:0400000007EF00F016
:0A0008007C820BED08F004EF0AF013
:10100000000708092F0405062A0102032D23003DCD
:051010002B2569000022
:101016000600FACF7AF0FBCF7BF0F2A815EF08F0C6
:1010260017EF08F020EF08F0F2A21CEF08F01EEF11
:1010360008F020EF08F04DEC0AF0F0A625EF08F0D6
:1010460027EF08F030EF08F0F0A02CEF08F02EEFB5
:1010560008F030EF08F036EC0AF0F0A835EF08F0AB
:1010660037EF08F040EF08F0F0A23CEF08F03EEF53
:1010760008F040EF08F01FEC0AF0F2A645EF08F082
:1010860047EF08F061EF08F0F2A04CEF08F04EEFE2
:1010960008F061EF08F081B853EF08F055EF08F05B
:1010A60061EF08F05204D8A45BEF08F05DEF08F09A
:1010B60061EF08F0526A000EE2EC09F0F2A666EF64
:1010C60008F068EF08F083EF08F0F2A06DEF08F083
:1010D6006FEF08F083EF08F081A874EF08F076EF61
:1010E60008F083EF08F05250D8A47CEF08F07EEFAA
:1010F60008F083EF08F0010E526E010EE2EC09F0E3
:10110600F2A688EF08F08AEF08F0A4EF08F0F2A044
:101116008FEF08F091EF08F0A4EF08F081BA96EF90
:1011260008F098EF08F0A4EF08F05104D8A49EEF59
:1011360008F0A0EF08F0A4EF08F0516A000EC0EC2A
:1011460009F0F2A6A9EF08F0ABEF08F0C5EF08F03A
:10115600F2A0B0EF08F0B2EF08F0C5EF08F081AAF0
:10116600B7EF08F0B9EF08F0C5EF08F05150D8A472
:10117600BFEF08F0C1EF08F0C5EF08F0516A010EA5
:10118600C0EC09F0F2A6CAEF08F0CCEF08F0E6EFE3
:1011960008F0F2A0D1EF08F0D3EF08F0E6EF08F080
:1011A60081BCD8EF08F0DAEF08F0E6EF08F050045B
:1011B600D8A4E0EF08F0E2EF08F0E6EF08F0506A96
:1011C600000E9EEC09F0F2A6EBEF08F0EDEF08F04A
:1011D60008EF09F0F2A0F2EF08F0F4EF08F008EFDC
:1011E60009F081ACF9EF08F0FBEF08F008EF09F021
:1011F6005050D8A401EF09F003EF09F008EF09F009
:10120600010E506E010E9EEC09F0F2A60DEF09F0EC
:101216000FEF09F029EF09F0F2A014EF09F016EF2D
:1012260009F029EF09F081BE1BEF09F01DEF09F067
:1012360029EF09F04F04D8A423EF09F025EF09F0B0
:1012460029EF09F04F6A000E7CEC09F0F2A62EEFAA
:1012560009F030EF09F04BEF09F0F2A035EF09F095
:1012660037EF09F04BEF09F081AE3CEF09F03EEFA6
:1012760009F04BEF09F04F50D8A444EF09F046EFC0
:1012860009F04BEF09F0010E4F6E010E7CEC09F0F0
:101296007BC0FBFF7AC0FAFF7C921100424A434BA7
:1012A600535B636B737B424A525A222A323A414954
:1012B60051596169D61400003901D014000031017A
:1012C600D21400002901D41400002101DC141101FC
:1012D6000201D81409010101DA1401010001414992
:1012E60051590001010021310111010101012212B0
:0112F60002F5
:1012F800796EF2907950D8A484EF09F086EF09F05E
:101308009DEF09F058505910D8B48DEF09F08FEFC0
:1013180009F09DEF09F002D89BEF09F00500FA6E7D
:101328005850FD6E5950FE6EFF6AFA5012009DEF3C
:1013380009F01200796EF2907950D8A4A6EF09F05E
:10134800A8EF09F0BFEF09F05C505D10D8B4AFEF1B
:1013580009F0B1EF09F0BFEF09F002D8BDEF09F0CD
:101368000500FA6E5C50FD6E5D50FE6EFF6AFA5025
:101378001200BFEF09F01200796EF2907950D8A4EC
:10138800C8EF09F0CAEF09F0E1EF09F06050611009
:10139800D8B4D1EF09F0D3EF09F0E1EF09F002D8A2
:1013A800DFEF09F00500FA6E6050FD6E6150FE6EC9
:1013B800FF6AFA501200E1EF09F01200796EF2901C
:1013C8007950D8A4EAEF09F0ECEF09F003EF0AF03E
:1013D80064506510D8B4F3EF09F0F5EF09F003EFA6
:1013E8000AF002D801EF0AF00500FA6E6450FD6EAB
:1013F8006550FE6EFF6AFA50120003EF0AF0120001
:10140800A20EF66E120EF76E000EF86E00EE01F0E8
:1014180010EE55F00900F5CFEEFFE550E150FAE186
:1014280000EE56F0230EEE6AE806FDE17C907C9211
:10143800000164EF0AF0F09266506710D8B427EF05
:101448000AF029EF0AF035EF0AF002D835EF0AF072
:101458000500FA6E6650FD6E6750FE6EFF6AFA5020
:1014680012001200F09068506910D8B43EEF0AF0EC
:1014780040EF0AF04CEF0AF002D84CEF0AF00500F2
:10148800FA6E6850FD6E6950FE6EFF6AFA501200DF
:101498001200F2926A506B10D8B455EF0AF057EF69
:1014A8000AF063EF0AF002D863EF0AF00500FA6E5B
:1014B8006A50FD6E6B50FE6EFF6AFA501200120001
:1014C80064EF0AF007EF00F0120012001200120099
:0614D800120012001200D8
:020000040030CA
:0E000000FF02091EFF8181FF0FC00FE00F40BD
:00000001FF
